:020000040800F2
:10000000F8F800207D020008AB7B00084D5C00087A
:10001000A57B00081F15000819DF0008000000007C
:100020000000000000000000000000009D0100082A
:10003000F519000800000000F9010008D9D40008F3
:10004000970200089702000897020008970200082C
:1000500097020008E5920008F526000831270008FD
:10006000372700083D2700084327000897020008AB
:1000700097020008C519000897020008D119000866
:10008000DD1900089702000897020008970200088F
:100090009702000897020008970200084927000805
:1000A00097020008970200089702000897020008CC
:1000B00097020008970200089702000897020008BC
:1000C00097020008970200089702000845AD000853
:1000D000970200089DDE0008A9DE0008B5DE0008D2
:1000E000FB260008659300089702000897020008A5
:1000F000970200089702000897020008970200087C
:10010000970200089702000897020008970200086B
:10011000970200087DD9000897020008970200089E
:1001200097020008E91900089702000897020008E2
:10013000970200089702000897020008970200083B
:10014000970200089702000897020008970200082B
:10015000970200089702000897020008970200081B
:10016000970200089702000897020008970200080B
:10017000970200089702000897020008000000009C
:100180009702000897020008DFF80CD000F070FD1D
:1001900000480047110A0108F8F800202C4B1968A4
:1001A000086800F05AB880F30988BFF36F8F4FF0EA
:1001B000000080F3118870470000000008480068C4
:1001C000006880F308884FF0000080F3148862B65E
:1001D00061B6BFF34F8FBFF36F8F00DF00BF00BF6B
:1001E00008ED00E0DFF80C00016841F470010160E7
:1001F000704700BF88ED00E0EFF30980BFF36F8F19
:10020000134B1A681EF0100F08BF20ED108A20E96A
:10021000F04F106009B44FF0500080F31188BFF325
:100220004F8FBFF36F8F12F01DF84FF0000080F377
:10023000118809BC1968086800F014B81EF0100F86
:1002400008BF00F014B880F30988BFF36F8F7047C0
:1002500028000020EFF30580704730C8B0E8C04F99
:10026000FFF7A1BF30C8B0E8C04FFFF7E7BFB0EC61
:10027000088AB0EC08CAFFF7E6BF000006488047CE
:1002800006480047FEE7FEE7FEE7FEE7FEE7FEE77B
:10029000FEE7FEE7FEE7FEE739D700088901000820
:1002A0002DE9F05F0546002092469B4688460646AB
:1002B000814640241BE0284641464746224600F03E
:1002C00016FB53465A46C01A914110D311461846A0
:1002D000224600F0FDFA2D1A67EB01084F46224630
:1002E0000120002100F0F4FA17EB00094E41201E16
:1002F000A4F10104DFDC484631462A46434600F0BB
:1003000000B830BCBDE8C09F40EA01039B0703D0A2
:1003100009E008C9121F08C0042AFAD203E011F844
:10032000013B00F8013B521EF9D27047D2B201E006
:1003300000F8012B491EFBD270470022F6E710B5EA
:1003400013460A4604461946FFF7F0FF204610BD43
:1003500030B505462A460B4612F8010B13F8014B3F
:1003600008B1A042F8D01CB1002802D06D1CF1E702
:10037000284630BDCAB2401E10F8011F8A4202D082
:100380000029F9D1002070472DE9F04791460F462A
:1003900080460446002614F8015B2DB100F0CAFA2D
:1003A0000068405DC007F6D12B2D02D02D2D18D04E
:1003B000641E4A463946204600F0C9FA27B139681A
:1003C000A14201D1C7F8008071054FF002040BD59E
:1003D0004042002803DD0FF0D1FB0460A007BDE818
:1003E000F08746F48066E4E70028F8DA0FF0C6FBF1
:1003F00004606FF00040F2E770B506460FF0BEFBF8
:10040000046805460A2200213046FFF7BDFF2C6034
:1004100070BD2DE9FE4F804681EA0300C00F0C46F7
:10042000009021F0004123F00045B8EB0200A94103
:1004300005D24046214690461C460B46024623F014
:100440000040104347D0270DC7F30A00C3F30A51F9
:100450000290401A019040286BDAC3F3130040F475
:10046000801B0098924620B10023D2EB030A63EB75
:100470000B0B01985946C0F14002504600F028FA93
:1004800006460D4650465946019A00F040FA10EBD8
:1004900008006141002487EA115284EAE7731A4395
:1004A00040D0009A62B3019A012A4FEA075215DC44
:1004B000001B61EB02014FF0004202EA0752CDE956
:1004C0000042001C41F5801132462B4600F026FB0D
:1004D00003B000F045B840462146F9E7001B61EB48
:1004E0000201001C41F5801300185B412018A2F5A1
:1004F000001747EB030140EAD570B6196D4111E0D2
:100500006D084FEA360645EAC0754FEA0752001BF0
:1005100061EB0201001C41F5801149084FEA3000EF
:100520000019514132462B4603B000F01CB800F0D0
:10053000E6BA0098012240000023D0EB020263EBF0
:10054000E073009821464FEAE074B8EB000061EBDD
:100550000401E9E783F000435BE781F0004158E7DD
:1005600030BCBDE8C08F30BCBDE8C04FFFF7DFBF77
:100570002DE9FE4F81EA030404F0004421F000411C
:1005800000944FF0000B23F0004350EA01045ED0CA
:1005900052EA03045BD0C3F30A54C1F30A552C4456
:1005A000A4F2F3340194A0FB0254C1F3130141F40B
:1005B0008011C3F3130343F4801301FB024400FBD7
:1005C000034E840A970A44EA815447EA8357A4FBFE
:1005D000076802958D0A05FB07854FEA932C04FBFB
:1005E0000C542705029D4FEA065847EA1637B5EB2B
:1005F00008056EEB070C870E920E47EA811742EA58
:100600008312A7FB0201B6EB0B0164EB00042B0D78
:1006100043EA0C335E1844EB1C50DA465146E7FBC4
:100620000201C5F313044FEA0B3343EA14534FEAB4
:100630000432019C43EA0603A4F10C040294009CDA
:10064000CDE900B400F06AFA03B000F003B800206E
:100650000146F9E730BCBDE8C08F2DE9F04D81EAD5
:10066000030404F0004B21F0004514464FF0000A4B
:1006700023F0004150EA050220D054EA01021DD0C7
:10068000C5F30A570246C5F31303C1F31300C1F3C0
:100690000A5640F4801543F48013A7EB0608101B9C
:1006A000D64608F2FD3873EB050002D308F10108C5
:1006B00001E092185B41B8F1000F03DA0020014617
:1006C000BDE8F08D00204FF48011064684460EE010
:1006D000171B73EB050705D3121B63EB05030643DA
:1006E0004CEA010C49084FEA300092185B4150EA8D
:1006F0000107EDD152EA030012D082EA040083EA36
:100700000501084305D0101BAB4106D2012200238E
:1007100006E000224FF0004302E06FF001025310A8
:100720001AEB06004CEB085110EB0A0041EB0B01F1
:10073000BDE8F04D00F0E3B90EB5C10F80EAE070FE
:100740000844CA07002140F233438DE80E000A46F0
:100750000B4600F0E3F903B000BD0EB540F23341A3
:1007600002910021CDE900110A460B4600F0D6F9AE
:1007700003B000BD70B5C1F30A5201F0004500247A
:10078000C1F3130140F2FF3341F480119A4201DAC0
:10079000002070BD40F233439A42A2F2334203DCA0
:1007A000524200F0A4F800E090402C43F1D04042C7
:1007B00070BDC1F30A5210B5C1F3130140F2FF330B
:1007C00041F480119A4201DA002010BD40F2334317
:1007D0009A42A2F2334203DC524200F088F810BD84
:1007E000904010BD00F0004230F000400AD0C10D32
:1007F00001F56071C0F3160042EA0151C2084007DA
:1008000011437047002001467047000030B5041EB8
:1008100071F1000404DB4FF00044404264EB01013D
:10082000141E73F1000405DB1C464FF000435242D6
:1008300063EB04038B4208BF824230BD30B5041E17
:1008400071F1000404DB4FF00044404264EB01010D
:10085000141E73F1000405DB1C464FF000435242A6
:1008600063EB0403994208BF904230BD01F000439E
:1008700030B421F0004150EA010206D00A0DA2F581
:100880006072C1F31301002A02DC30BC0020704703
:10089000440F44EAC104C100E01830BC00EBC25070
:1008A00000F0F6B830B50B460146002020220124A6
:1008B00009E021FA02F59D4205D303FA02F5491B2E
:1008C00004FA02F52844151EA2F10102F1DC30BD44
:1008D000202A04DB203A00FA02F100207047914000
:1008E000C2F1200320FA03F3194390407047202AF5
:1008F00004DB203A21FA02F00021704721FA02F3CA
:10090000D040C2F120029140084319467047202A86
:1009100006DBCB17203A41FA02F043EAE07306E027
:1009200041FA02F3D040C2F1200291400843194637
:1009300070470000004870470833010810B50446AE
:10094000FFF7F8FF0068005D00F0010010BD2DE921
:10095000F05F82460078002715468B460AF10104B5
:10096000B946302801D09DB113E014F8010B0127DE
:10097000782803D0582801D045B10AE00DB1102DD8
:1009800007D10027102514F8010B02E0082500E02C
:100990000A250026B0460EE005FB080005FB06F11F
:1009A000012701EB10461FFA80F8B6F5803F00D30F
:1009B000B94614F8010B294600F06CF90028EBDA6F
:1009C000BBF1000F05D00FB1641E00E05446CBF818
:1009D0000040B9F1000F06D00FF0D0F802210160FD
:1009E000C81E00F003B848EA0640FAE730BCBDE88C
:1009F000C09F00000FB4002300B589B00CA900917E
:100A00000B996FF00042CB601E4B06931E4B079371
:100A10000423CDE901321D4A089202466B460020AC
:100A200000F0DAF909B05DF814FB70B586B006463F
:100A30004FF0FF300091CDE90101002015460C4632
:100A400004903246694604A8FFF7D4FF0246049892
:100A5000211825B108B1084600E020462860049816
:100A600000280DD0002A02DD0098884208D0081B1B
:100A70000094CDE901043246694604A8FFF7BAFFA5
:100A800006B070BD17100008351000083D090008B9
:100A90000029A8BF7047401C490008BF20F0010092
:100AA000704710B4B0FA80FC00FA0CF050EA010470
:100AB00004BF10BC704749B1CCF1200421FA04F402
:100AC00011FA0CF118BF012121430843A3EB0C01DB
:100AD000CB1D4FEA00614FEA102042BF002010BC3E
:100AE000704700EBC35010440029A4BF10BC7047EE
:100AF000401C490008BF20F0010010BC704710B531
:100B0000141E73F1000408DA401C41F10001921830
:100B10005B411A4301D120F0010010BD2DE9F04DD9
:100B200092469B4611B1B1FA81F202E0B0FA80F22E
:100B300020329046FFF7CCFE04460F4640EA0A00FA
:100B400041EA0B0153465A46084313D0114653EA73
:100B5000010019D0C8F140025046FFF7C8FE054613
:100B60000E46504659464246FFF7B2FE084305D0AE
:100B7000012004E020463946BDE8F08D0020054301
:100B800046EAE0762C4337430A986305E40AA0EB73
:100B900008000022FD0A44EA47540A3002D500202A
:100BA0000146E9E7010510196941DDE90845001929
:100BB0006941BDE8F04DA2E72DE9F041054621F07D
:100BC00000400C46284309D0C4F30A5040F2334198
:100BD000884205DD28462146BDE8F0812846FBE72E
:100BE00040F2FE31884210DC0CDB4FEA043040EA70
:100BF000155050EA053105D0104804F0004101437A
:100C00000020E9E700200146E6E7A0F23340464233
:100C1000C6F1400228462146FFF75AFE074688469D
:100C2000284621463246FFF762FE43463A46FFF722
:100C300066FF3246BDE8F041FFF74ABE0000F03FD4
:100C4000C1F30A52C1F3130140F2FF3341F48011A2
:100C50009A4202DA00200146704740F233439A423A
:100C6000A2F2334202DC5242FFF741BEFFF730BE30
:100C7000064C074D06E0E06840F0010394E80700E9
:100C800098471034AC42F6D3FFF782FA30360108A9
:100C9000503601083A2800D2303820F02002412A8C
:100CA00001D3A2F13700884201D34FF0FF307047E3
:100CB0002DE9FF4F087883B09946FF2805D0491CDD
:100CC0002D2804D00024002008E000200BE001249F
:100CD000F9E700EB800003EB4000491C0B78FF2B89
:100CE000F7D104B1404200230293147819461D46FF
:100CF0002D2C01D02B2C04D1521C2D2C13D00024D0
:100D00000294AA461478FF2C0FD00A25A3FB05787D
:100D100001FB05814FF0000C03FB0C11521CE31981
:100D20004AEB0101EEE70124EAE7814453EA0100BE
:100D300002D019F5C87F06DA03980021C0E9001136
:100D400007B000F065B90025AE4E2F46DFF8B88237
:100D5000184600F080F9CDE90001B9F1000002DA8F
:100D6000C9F1000400E004460023A74A1AEB030B74
:100D700042EB045A12E0E00707D02A4633463846D1
:100D80004146FFF7F5FB074688462A46334610469C
:100D90001946FFF7EDFB05460E466410002CEAD11C
:100DA000DDE90001B9F1000F5A46534606DAFFF7B4
:100DB00054FC3A464346FFF750FC05E0FFF7D8FBEA
:100DC0003A464346FFF7D4FB029A0AB181F000414C
:100DD000039AC2E90001B3E72DE9FF4F1F468DB02A
:100DE000D7E901464FF0FF382E2045464FF0000965
:100DF0000B90B9696D1C0E988847396A82468847FE
:100E00000028F6D1BAF1FF3F0AD024F4D064002EB6
:100E100011DDBAF12B0F08D0BAF12D0F0BD102E082
:100E2000404611B08DE744F48064B9696D1C0E989A
:100E300088478246761E6946600501D52D2000E070
:100E40002B208DF8000001F1010B0DF1200809E0C5
:100E5000B9696D1C0E98884782460F9844F4007457
:100E6000761E0560002E02DDBAF1300FF0D00B992E
:100E70008A453ED144F0800406E00F99681CA9F130
:100E8000010944F400740860B9696D1C761E0E985F
:100E9000884782463028F0D02BE00B998A4505D14F
:100EA000200603D444F08004761E18E050460FF06C
:100EB000F0F808B30DF11301761E44F400748B456D
:100EC00008D2AAF130000BF8010B200607D5A9F1D2
:100ED000010003E0200602D409F101008146A005CB
:100EE00002D50F99681C0860B9696D1C0E98884777
:100EF0008246002ED1DC53E0002E51DDBAF1650FA1
:100F000002D0BAF1450F4BD1A00549D5B9696D1C86
:100F100024F44074761E0E9888478246002E0CDD1D
:100F20002B2804D0BAF12D0F07D144F48074B9698D
:100F30006D1C0E9888478246761EE00501D52D214E
:100F400000E02B2108F8011BCDF82C8021E00DF1E9
:100F50002901761E44F4007488450CD2AAF13000B1
:100F600010F0FF0088F8000002D10B99884509D9DC
:100F700008F1010806E0E00501D5244801E042F24D
:100F80000F708146B9696D1C0E98884782460F988C
:100F90000560002E04DD50460FF07BF80028D6D106
:100FA000F9690E988847FF208BF8000088F8000048
:100FB0000020069007904B466A4608A906A8FFF74E
:100FC00077FEA00502D46FF001002AE714F0240F89
:100FD0000AD0E00714D1DDE906123868031D3B6032
:100FE0000068C0E900120BE0DDE90601FFF73EFCF6
:100FF0000146E00704D13868021D3A6000680160CC
:1010000028460EE7000014400000F03FF1D8FFFF33
:1010100030BCBDE8C08F426842B1016811F8013BA5
:1010200023B1521EC0E90012184670470121C16069
:10103000881E704742685AB1C368016843B9836823
:101040008B4205D0491E521CC0E900120020704797
:101050004FF0FF3070470EB540F23342029200224B
:10106000CDE900221346FFF759FD03B000BD70B56E
:101070008C1810F8015B15F0070301D110F8013B43
:101080002A1106D110F8012B03E010F8016B01F8CA
:10109000016B5B1EF9D12B0705D40023521E0DD422
:1010A00001F8013BFAE710F8013BCB1A921C03E070
:1010B00013F8015B01F8015B521EF9D5A142D8D3A8
:1010C000002070BD70B588B00C4605461022002186
:1010D00068460FF045FE6946224608460FF07FFB42
:1010E0009DF80000694600064FF000000FD50B1870
:1010F0000A5C5B78520042EAD3120A54401C0F2863
:10110000F5DB9DF80F00400080F087000CE00B1825
:101110000A5C5B78520042EAD3120A54401C0F2842
:10112000F5DB9DF80F0040008DF80F00D4F8140196
:10113000102814D09DF8000000061CD500200B18C4
:101140000A5C5B78520042EAD3120A54401C0F2812
:10115000F5DB9DF80F00400080F0870019E00020CB
:1011600022180E5C92F80131401C734082F8013164
:101170001028F5DB2AE000228B18885C5B784000A1
:1011800040EAD3108854521C0F2AF5DB9DF80F005B
:1011900040008DF80F00D4F8146104F2011280238E
:1011A000B354002300E08354D4F81401401CC4F865
:1011B00014011028F7D3002022180E5C92F8013198
:1011C000401C734082F801311028F5DB0020211803
:1011D000401C11F8F12F0B7C5A400A701028F6DBE6
:1011E000102204F1F10104A80FF0A4FD22462946C3
:1011F00004A80FF0F4FA1022002168460FF0B0FDA9
:1012000008B070BD10B5044610220021F1300FF077
:10121000A7FD00200146C4F814012046BDE8104097
:10122000F0220FF09DBD0B460246102118460FF02C
:10123000FDBA2DE9FF470446D0F814010F461546C4
:1012400004F2011804F1F10918B3C0F11006AE421E
:1012500000D31646B2B2404439460FF06BFDD4F8C5
:1012600014013044C4F81401102837D3B54235D0E6
:1012700000202118401C11F8F12F0B7C5A400A70F5
:101280001028F6DB4946224608460FF0A8FA3744F4
:10129000AD1B1AE0002021183B5C11F8F12F401C17
:1012A0005A400A701028F6DB1022494668460FF0B3
:1012B00041FD6946224608460FF091FA1022694620
:1012C00048460FF037FD103D1037102DE2D8AAB276
:1012D000394640460FF02EFDC4F8145100F000B816
:1012E0000FBCBDE8F087000038B5124C94F81A0422
:1012F00094F8191488421BD2082819D8401C84F885
:101300001A04C00714D022208DF80000D4F88804F5
:1013100090F82C118DF8021090F8F9108DF801104A
:101320000078694609F0E3F8D4F8881481F8F900E8
:1013300038BD0000ACE90020EFF31081016072B607
:101340007047006880F310887047000010B50348AC
:101350000BF088FEBDE8104009F092BFACE8002019
:1013600001480068704700009075FF1F104A10B5D3
:10137000111D13680C6823441B0EC37113680C689D
:1013800023441B0C837113880C8823441B0A43716C
:1013900012780B781A4402710A68120EC2700A6839
:1013A000120C82700A88120A42700978017010BD0E
:1013B0009075FF1F7CB54D4D0126287850B30CF079
:1013C0007FF900BF4FF0FF311D20CDE900011E2342
:1013D0001F22012146480BF031FF09F095FF2878C4
:1013E000002816D12E7001F001FC012811D1A87837
:1013F00000280ED13F4940480CF0D7F94FF47A71DC
:101400003D480CF03EFA3C480CF04CFAA878002815
:10141000FCD07CBD02F0EEF900221146042002F05F
:10142000B9FA042002F09BFA01F0D6FF3348816D2F
:1014300041F080518165806D00F080500C2000905B
:101440004FF001100190684602F03EFB02F07CFB79
:1014500000221146012002F09DFA012002F07FFADD
:1014600001F086F901F058FF002423480094234638
:1014700001222A213C38019401F08FFC1E4800947F
:101480000023012221212838019401F086FC1A480A
:1014900000940023012222211438019401F07DFCE4
:1014A0000CF0ACF804F016FB13496E7018314FF4D1
:1014B000007201F20C6001F04FFA11494FF48062A2
:1014C00001F5806001F048FA09F0E2F901F0A4FDAD
:1014D00001F0B2FD01F0A8FD01F088FB01287FF4C6
:1014E00071AF0121084606F0AFFA6BE7D800002083
:1014F000ACE80020457C000830CF002000100240FE
:1015000048D10020704700002DE9104001F058F943
:101510000028FBD172B606F04BFA62B610BD04F09B
:1015200010FAFEE72DE9FE4F8A4690F9105090F927
:1015300011808168044619604079002799469346D6
:10154000012846D102208DF80000A07C8DF8020011
:10155000E07C694608F0CBFF46B2B54200DC354678
:10156000B54203D10021C9F8001032E0A189A0687A
:10157000884209D308208DF800000127E07C6946E5
:1015800008F0B5FF4FFA80F8A089E1894218A068F9
:1015900082421ED8B0FBF1F201FB1200012818D1E3
:1015A00022208DF800008DF80150A07C8DF80200FB
:1015B000E07C694608F09BFF45B2B54209D120792D
:1015C0000027012805D18DF80800E07C01A908F06A
:1015D00096FF8AF800508BF80080384600F000B87B
:1015E0001EBCBDE8E08F000070B5254C00258AB018
:1015F000D4F88814012691F8D821E2B38DF814604C
:1016000091F83D118DF816108DF8170003A80BF016
:1016100099FFD4F8881401F5E670D1F8D011009143
:10162000DDE90312036801A80BF0B3FFDDE9010156
:10163000CDE90601D4F8200408908DF8155094F8EF
:101640008504400705D5002004F0ECFC08B18DF8B6
:101650001560D4F8880405A904F58464007808F0BE
:1016600003F8A16E2068B1F8C2214243101AC1F8F4
:10167000C8010AB070BDFFE78DF81450C0E7000044
:10168000ACE90020044A936843F0010393601060C2
:101690001180106880B27047003002400449D1F8D0
:1016A0005013002903D08968002900D008477047EB
:1016B000ACE9002000207047124A082852681DD269
:1016C000DFE800F01C04080C1113151702F11003D9
:1016D000106906E002F11403506902E0906902F11A
:1016E0001803136306E0D06904E0106A02E0506A50
:1016F00000E0906A814203D8401C01D0002070476E
:101700000120704790F100202DE9F04387B01C467E
:101710000E9E90460F0005460BD056B115488146E7
:10172000FFF770FD06A9204601F0DCFA040004D0A2
:101730001EE0022007B0BDE8F08306994846491C28
:10174000FFF771FD25B1102229464846FFF771FDCC
:10175000424639464846FFF76CFD49466846FFF762
:10176000B1FC9DF80000DDF8011040EA0120306076
:101770002046DFE744CC00200A4808B5816C41F4DC
:1017800080518164806C48F2050100F48050009023
:1017900005484161816821F0180141F0080181602C
:1017A00008BD000000100240003002402DE9FF4F4C
:1017B000002083B09A46904681460546074601269A
:1017C0000090002438F8171006FA04F001422BD0DC
:1017D00005EB040B0BEB4B015AF8212022B3039AC3
:1017E0000AB9400720D00AEB8100019090F9080067
:1017F000021140F30301049840B208F08CF998B14B
:101800000198417A109800EB0110C06820B109F1ED
:10181000010000F0FF0907E0009A119901F802B0F9
:101820000098401CC0B20090641CE4B2102CC9D3D4
:1018300010357F1CEDB2FFB2102DC2D3129981F882
:101840000090009807B000F000B830BCBDE8C08F31
:1018500070B5504B00251C88661C1E804E4B00291D
:101860007ED1012600287CD0012879D11E70002A63
:1018700078D0012A74D110205870200A9870DC703A
:1018800019715971434905201331401C4A5DC0B29A
:101890006D1CEDB21A54082DF7D33E49401C891D2A
:1018A000C0B20A88140A1C54401CC0B21A544A8898
:1018B000401CC0B2140A1C54401CC0B21A5489887F
:1018C000401CC0B20A0A1A54401CC2B23248995491
:1018D0007230521CD1B2447B5C54491CCAB2847B26
:1018E0009C54B0F80F10521CD2B20C0A9C54521CDB
:1018F000D2B29954521CD1B2847A5C54491CC9B2F8
:10190000C27A5A54491CCAB2047B9C540168521CC6
:10191000D2B20C0E9C54521CD2B20C0C9C54521CD1
:10192000D2B20C0A9C54521CD2B2995441680C0E8B
:10193000521CD2B29C54521CD2B20C0C9C54521C5D
:10194000D2B20C0A9C54521CD2B299540089521C37
:10195000D1B2040A5C54491CC9B20E4C585402E07E
:1019600012E012E013E0A41C491C2288C8B2150A38
:101970001D54401CC0B21A546188401CC0B20A0AEF
:101980001A54401CC0B2195470BD19706FE75970D9
:1019900073E70000AC000020B4CA00200FB400B50B
:1019A000C1B043AA684642990EF0D6F80146FF2816
:1019B00001D94FF48071684604F0A6F841B05DF893
:1019C00014FB0000014801F066BB0000F8C90020CC
:1019D000014801F060BB000068C90020014801F027
:1019E0005ABB0000B0C90020014801F054BB000000
:1019F00020C9002003F0A6BFAFF3008001F008BCAF
:101A0000224910B500220C681346640504D50A6803
:101A100022F480620A6001224C6944F001044C61A6
:101A20000024046044600869C003FCD4086980078E
:101A30000ED4086900070BD40869C00608D40869E9
:101A4000800605D40869400602D40869000600D55E
:101A50000D230869C00701D001200861486920F002
:101A6000010048615AB1086840F480500860086875
:101A700020F480500860086840F48060086088693D
:101A800040F000408861184610BD00000020024070
:101A90002DE9FF411E461746054691B18FB186B12B
:101AA00000200090019002900390052D0BD0062D90
:101AB00009D0072D07D0082D07D0082004B0BDE8B5
:101AC000F0810720FAE7012000E002208DF80000F5
:101AD0006C460322601C0FF02DF903223946201DAD
:101AE0000FF028F902223146E01D0FF023F90648D5
:101AF0002B4602224068694600680AF027FF00284A
:101B0000DCD00C20DAE7000090F1002040B139B1C0
:101B1000027B130706D090F820301BB100200EE0A6
:101B20000320704790F828301BB1120703D017200C
:101B30007047012003E090F8200018B103200870DE
:101B4000002070470220FAE7704770472DE9F05FE8
:101B50003E484FF6FF754FF480160168A94201D147
:101B6000314601E00905890A49084FF40027B7FB0F
:101B7000F1F201FB1271CC0A4FF0006B80464FF07E
:101B800014091EE0A84201D1324603E04FEA005298
:101B90004FEA92224FEA5203B7FBF3F2BA4601D161
:101BA000304603E04FEA00504FEA90204FEA5001E0
:101BB0000BEBC42002FB010001F0CCF8042806D096
:101BC0000A34D8F80000A84233D1324633E0B14697
:101BD000651C04F10A074FF6FF781C4E1EE03068C2
:101BE000404501D1494603E04FEA00514FEA9121B7
:101BF0004FEA5102BAFBF2F101D1484603E04FEA45
:101C000000504FEA90204FEA50020BEBC52001FB39
:101C1000020001F09FF8042816D16D1CBD42DED3EE
:101C20000A21204606F032F9002800D0012000F0F9
:101C30000FB80205920A5208B7FBF2F302FB1373C6
:101C400009EBD322A2429DD80520F0E7E075FF1FE3
:101C500030BCBDE8C09FFFF7D3BE00002DE9F047C0
:101C60008246FFF727FD10B10E20BDE8F0873F4800
:101C70004FF6FF744FF480170168A14201D1394635
:101C800001E00905890A49084FF40025B5FBF1F286
:101C900001FB1251CE0A4FF0140980462DE000BF1F
:101CA000BAF1000F03D0A04209D139460BE04FF042
:101CB0000101304606F0EAF8F0B10120D5E74FEA1D
:101CC00000514FEA91214FEA5101B5FBF1F101D1E9
:101CD000384603E04FEA00504FEA90204FF0006290
:101CE0004FEA500002EBC62201FB00204FF40061D6
:101CF0000CF050F91028DAD0761CD8F80000A04279
:101D000001D1394601E00105890A4908B5FBF1F224
:101D100001FB125209EBD221B142C1D8D8F8001010
:101D20004646A14201D1384601E00005800A40083C
:101D3000B5FBF0F100FB1150C00A02210BF074F862
:101D400008B1022091E70A48002141803168A14290
:101D500001D009058F0A7908B5FBF1F201FB125198
:101D6000C90A01702021816000207EE7E075FF1F15
:101D7000080100202DE9F34F002583B006462C46CC
:101D8000AB46009502950195FFF794FC18B10E2023
:101D900005B000F0A7BCFFF7EFFC46B1FB484FF6DB
:101DA000FF72466036F8150008B1904201D1082054
:101DB000EEE76D1CB5F5006FF4D3F54D4FF48017C9
:101DC0002868904201D1394601E00105890A4B0893
:101DD0004FF40021B1FBF3F603FB1613DB0A4FF0BF
:101DE000140E4FF00069924627E0504501D13A4663
:101DF00003E04FEA00524FEA92224FEA5202B1FB4F
:101E0000F2F601D13A4603E04FEA00524FEA92223D
:101E10004FEA520509EBC32206FB05254FF00002ED
:101E20004FF4006605EB020CDCF80080DCF804C01F
:101E300002F10802B242F5D35B1C504501D13D4688
:101E400001E00505AD0A6E08B1FBF6F506FB1515B8
:101E50000EEBD525F0469D42C7D8504501D13846F6
:101E600001E00005800A4008B1FBF0F500FB151009
:101E7000C50A8A462AE0884201D1394603E04FEA82
:101E800000514FEA91214FEA5101BAFBF1F101D122
:101E9000384603E04FEA00504FEA90204FEA5002E4
:101EA00009EBC52001FB020000F054FF022804D01A
:101EB000012802D0032802D007E0641C05E0009846
:101EC00000B90295401CAB4600906D1CB0484FF61F
:101ED000FF710068884201D13A4601E00205920A8A
:101EE0005308BAFBF3F603FB16A308EBD323AB426C
:101EF000C1D89CBB009991B3A5494FF6FF750A68FC
:101F0000AA4201D13A4603E04FEA00524FEA922238
:101F10004FEA5202BAFBF2F3544602FB1343029A11
:101F2000A2EBD3224FF0140302F11302B2FBF3F63B
:101F300003FB162201D13B4603E04FEA00534FEA70
:101F400093234FEA5303B4FBF3F603FB164302EB70
:101F5000D32309EBC32203D13B4605E046E046E02C
:101F60004FEA00534FEA93234FEA5303B4FBF3F3D2
:101F70000E4601D1384603E04FEA00504FEA902068
:101F80004FEA500003FB002000F0E4FE042834D1A7
:101F90003068A84201D1394603E04FEA00514FEAC8
:101FA00091214FEA5101B4FBF1F201FB1241ABEB7D
:101FB000D1224FF0140102F10102B2FBF1F301FB57
:101FC000132201D1384603E04FEA00504FEA902037
:101FD0004FEA5001B4FBF1F001FB104002EBD020BE
:101FE0004FF001010AF020FF002870D105E005B094
:101FF000002000F07ABBFFF731BE65484FF6FF7155
:1020000002688A4201D13A4601E01205920A52085A
:10201000BAFBF2F3544602FB1342D50A8A46C5E0E6
:10202000884201D13B4603E04FEA00534FEA932335
:102030004FEA5303B4FBF3F3164601D1384603E0ED
:102040004FEA00504FEA90204FEA500109EBC520BB
:1020500003FB010000F07EFE012861D1306851468B
:10206000884201D13A4601E00205920A5208B4FBC7
:10207000F2F302FB1342B5EBD22F52D0884201D1CA
:102080003A4601E00205920A5208B4FBF2F302FB61
:1020900013430A2202EBD322AA4242D0504501D177
:1020A000394603E04FEA00514FEA91214FEA5101CE
:1020B000B4FBF1F201FB1241A5EBD12101F11301B7
:1020C000B1FBF8F208FB121202D1394604E0F3E149
:1020D0004FEA00514FEA91214FEA5101B4FBF1F36D
:1020E00001FB134102EBD12209EBC22201D1394697
:1020F00003E04FEA00514FEA91214FEA5101B4FB4E
:10210000F1F101D1384603E04FEA00504FEA902048
:102110004FEA500001FB002000F01CFE03284CD0C9
:1021200043E0504501D1394603E04FEA00514FEA00
:1021300091214FEA5102B4FBF2F102FB1141A5EBF0
:10214000D12101F10101B1FBF8F208FB121201D11A
:10215000394603E04FEA00514FEA91214FEA51011D
:10216000B4FBF1F301FB134102EBD12209EBC221D5
:1021700001D13A4603E04FEA00524FEA92224FEA79
:102180005202B4FBF2F205D1384607E00801002004
:10219000E075FF1F4FEA00504FEA90204FEA5000D1
:1021A00002FB001000F0D6FD38B16D1CFB4A514611
:1021B0001068884210D13B4610E0F9480021012206
:1021C0000570084605F09CFEB0F5807F01D00C201C
:1021D000DEE5012001900BE003059B0A5B08B4FBE0
:1021E000F3F603FB164308EBD323AB423FF618AFDD
:1021F000EA490020009008685546A84201D13846B7
:1022000001E00005800A4008B4FBF0F200FB124038
:10221000C246C60A8846CBE0A84201D13A4603E04E
:102220004FEA00524FEA92224FEA5202B4FBF2F216
:1022300001D1384603E04FEA00504FEA90204FEAC0
:10224000500109EBC62002FB010000F083FD0228CB
:1022500002D003287BD0AAE0D8F80000A84201D120
:10226000394601E00105890A4908B4FBF1F201FB96
:102270001241B6EBD12F51D0A84201D1394601E02D
:102280000105890A4908B4FBF1F201FB12420A2157
:1022900001EBD221B14241D0A84201D1394603E03D
:1022A0004FEA00514FEA91214FEA5101B4FBF1F29C
:1022B00001FB1241A6EBD12101F11301B1FBFAF3AD
:1022C0000AFB131201D1394603E04FEA00514FEAED
:1022D00091214FEA5101B4FBF1F301FB134102EBF1
:1022E000D12209EBC22201D1394603E04FEA005165
:1022F0004FEA91214FEA5101B4FBF1F101D1384687
:1023000003E04FEA00504FEA90204FEA500001FBF3
:10231000002000F01FFD032841D048E0A84201D171
:10232000394603E04FEA00514FEA91214FEA51014B
:10233000B4FBF1F201FB1241A6EBD12101F1010145
:10234000B1FBFAF30AFB131202D1394604E02DE087
:102350004FEA00514FEA91214FEA5101B4FBF1F3EA
:1023600001FB134102EBD12209EBC22201D1394614
:1023700003E04FEA00514FEA91214FEA5101B4FBCB
:10238000F1F101D1384603E04FEA00504FEA9020C6
:102390004FEA500001FB002000F0DCFC38B9009847
:1023A000B0BB7F4806700120009000E0B346761C69
:1023B000D8F80000A84201D1394601E00105890A98
:1023C0004A08B4FBF2F102FB11420AEBD221B142FE
:1023D0003FF622AF009981BBD8F80020AA4201D174
:1023E000394603E04FEA00514FEA91214FEA51028A
:1023F000B4FBF2F3214602FB1313ABEBD32202F141
:102400000102B2FBFAF60AFB162202D1384604E0BA
:1024100097E04FEA00504FEA90204FEA5000B1FB9E
:10242000F0F300FB13405E4902EBD020C0B208700D
:102430004FF002010AF0F8FCF0BB594900208B462E
:102440004880202088600E78D8F800304146AB42A2
:1024500001D13A4603E04FEA03524FEA92224FEA93
:102460005202B4FBF2F201D1BC4603E04FEA035C36
:102470004FEA9C2C4FEA5C0C02FB0CF202EBC62CE0
:1024800000F100629444DCF80020DCF804C06FEA3C
:10249000020272EA0C0211D0BBF802C008300CF143
:1024A000010CABF802C0DBF808C0B0F5006F0CF10E
:1024B000080CCBF808C000E00CE1C8D3CB4646E0DE
:1024C000A84201D1394603E04FEA00514FEA912179
:1024D0004FEA5101B4FBF1F201FB1241A6EBD1210D
:1024E00001F11301B1FBFAF30AFB131201D13946D2
:1024F00003E04FEA00514FEA91214FEA5101B4FB4A
:10250000F1F301FB134102EBD12601D1394603E07F
:102510004FEA00514FEA91214FEA5101B4FBF1F12A
:1025200001D1384603E04FEA00504FEA90204FEACD
:1025300050020BEBC62001FB020000F00BFC03284D
:1025400001D00A2024E416494888FC304880D8F895
:102550000000A84201D1394601E00105890A490875
:10256000B4FBF1F201FB1242B6EBD22F0FD0A8421E
:1025700001D1394601E00105890A4908B4FBF1F2AD
:1025800001FB12420A2101EBD222B24298D1D8F8C3
:102590000020AA4206D13A4608E00000E075FF1F7D
:1025A000080100204FEA00524FEA92224FEA5202FD
:1025B000B4FBF2F302FB1343484AD1461278A2EB74
:1025C000D32202F10102B2FBFAFC0AFB1C2201D168
:1025D0003B4603E04FEA00534FEA93234FEA53038D
:1025E000B4FBF3FC03FB1C4302EBD32801D13A46B6
:1025F00003E04FEA00524FEA92224FEA5202B4FB44
:10260000F2F2AA4601D1384603E04FEA00504FEA01
:1026100090204FEA50010BEBC82002FB01005D4601
:102620004DE0049929B14FF400610BF0B3FC102880
:1026300006D10121404605F029FC08B10120C7E57B
:1026400027480068504501D1394603E04FEA005160
:102650004FEA91214FEA5101B4FBF1F201FB124123
:10266000A8EBD12101F10101B1FBF9F309FB131230
:1026700001D1394603E04FEA00514FEA91214FEA78
:102680005101B4FBF1F301FB134102EBD12801D15D
:10269000394603E04FEA00514FEA91214FEA5101D8
:1026A000B4FBF1F101D1384603E04FEA00504FEAA4
:1026B00090204FEA500205EBC82001FB0200B04514
:1026C000AFD1019840B9002108460BF075FC18B154
:1026D000122801D002207BE5002079E508010020C6
:1026E000E075FF1F30BCBDE8C08F30BCBDE8C04FF7
:1026F000FFF781BC012000F043BF10B54FF48060AC
:1027000000F03EFF4FF4006000F03AFF4FF48050BD
:1027100000F036FF4FF4005000F032FF4FF48040DD
:1027200000F02EFFBDE810404FF4004000F028BF3D
:10273000022000F025BF042000F022BF082000F096
:102740001FBF102000F01CBF10B5202000F018FFA4
:10275000402000F015FF802000F012FF4FF4807041
:1027600000F00EFFBDE810404FF4007000F008BF0D
:1027700010B500F031FE104A00204FF40063411CF8
:1027800022F8101088B29842F9D30C480169C905A3
:1027900001D4002108E04FF4807181610169C9070B
:1027A00001D00121816101210348FFF7E3FABDE86F
:1027B000104000F0B1BD000060D500200070004066
:1027C00002480068002800D001207047DC0000208B
:1027D00070470520FEF762BF0420FEF75FBF0620AA
:1027E000FEF75CBF0220FEF759BF0720FEF756BF79
:1027F0000320FEF753BF0000124A117F124801293F
:1028000001D003290BD1036843F40063036003681C
:1028100023F400630360036843F400730360022938
:1028200001D003290BD1016841F480510160016896
:1028300021F480510160016841F480610160002051
:102840001077704704000020002002400849C207AA
:1028500003D04A6942F004024A61800703D54869FF
:1028600040F400404861486940F480304861704756
:1028700000200240CA070B494A6902D022F40062D4
:1028800001E042F400624A614A6960F3CA024A61A7
:10289000486940F002004861486940F4803048616E
:1028A0007047000000200240044910B54C6944F014
:1028B00001044C610260436010BD00000020024032
:1028C000074B10B55C69402244F480245C6172B609
:1028D00008C908C0521E12F0FF02F9D162B610BD3D
:1028E0000020024070B5054600F040FF0646184C37
:1028F00008E0681C06D000F039FF801BA84201D315
:10290000032070BD2069C003F3D421694CF2FA3072
:102910000140A06900F00040084311D00D494A6809
:1029200002434A60810F04D0A16900F04042114384
:10293000A161810002D020F040402061012070BDE3
:102940002069C00701D001202061002070BD000077
:1029500000200240040000200023038043804160E7
:10296000028170470089491CB1FBF0F200FB121094
:1029700080B2704770B504460188FFF7F3FF6168C5
:102980000D5C21882046FFF7EDFF2080284670BDB2
:1029900070B50D4604464188FFF7E4FF608061682A
:1029A0000D5470BD2DE9F14F6F496E4C4FF48017F7
:1029B000086826784FF6FF727B10904201D13D46A1
:1029C00003E04FEA00554FEA95254FEA5505984632
:1029D000B3FBF5F38A46914601D1384603E04FEA4E
:1029E00000504FEA90204FEA50014FF0006B0BEB84
:1029F000C62003FB010000F0ADF90546DAF800003F
:102A00004FF0140A484501D13B4603E04FEA00531A
:102A10004FEA93234FEA530CC146B8FBFCF80CFB7A
:102A20001893A6EBD32303F10103B3FBFAF80AFBD7
:102A3000183301D13A4603E04FEA00524FEA92229E
:102A40004FEA520CB9FBFCF84A460CFB182C03EB7E
:102A5000DC2901D1BC4603E04FEA005C4FEA9C2C24
:102A60004FEA5C0C9046B2FBFCF201D1384603E021
:102A70004FEA00504FEA90204FEA50030BEBC92079
:102A800002FB030000F066F937490A684FF6FF7150
:102A90008A4201D1394603E04FEA02514FEA9121BF
:102AA0004FEA5103B8FBF3FC414603FB1C13A6EBB2
:102AB000D32303F11303B3FBFAF80AFB183303D053
:102AC0004FEA02524FEA92274FEA5702B1FBF2F760
:102AD00002FB1711009A03EBD1214FF0FF3882B3AC
:102AE000012A02D0022A38D136E020274FF40061B3
:102AF000022D02D0012D11D02FE0A2688A4226D3E8
:102B0000042802D1FFF722F800BB032130460AF067
:102B10008BF9D8B902210FE0A76020E0A2688A42B1
:102B200015D3042802D1FFF711F878B903213046F4
:102B30000AF07AF950B9012148460AF075F928B926
:102B4000EAE7FFE7022D02D0012D03D005E0304671
:102B500000F00CB80846FBE708B14046F8E74846E5
:102B6000F6E7000008010020E075FF1F18BCBDE873
:102B7000E08F0000094951F8200000F57760B0F5BA
:102B8000783006D000F57760B0F5783F03D00020AC
:102B9000704701207047022070470000B4310108DF
:102BA00030B5104909684FF48012CD050E494FF633
:102BB000FF744FF0006309680BD4A14201D00905EE
:102BC0008A0A03EB5201814201D9012030BD022063
:102BD00030BDA14201D009058A0A03EB52018142AE
:102BE000F5D8F2E700000140E075FF1F0348407888
:102BF00008B100207047012070470000D800002075
:102C000038B51A4800F5F07420604FF4F070606039
:102C100004F1140003F0AAFA206100200090A4F24D
:102C20006C606946D0F88804007807F059FCA06011
:102C30000098E06004F11C0009F0ACFEA06104F112
:102C4000240003F095F8206204F12C0003F02CF826
:102C5000A06204F1340003F089F9206304F13C0020
:102C600003F07CFCA063204638BD000038EE002055
:102C700070B505461446084604E00178A94204D020
:102C800002F0E8FFA042F8D1002070BD094A0021FF
:102C900052F83130834208D802EBC1039B6883426B
:102CA00003D902EBC10000797047491CC9B215294C
:102CB000EED3FEE7D830010810B5094B002200BF63
:102CC00013F82240844204D103EB82000860002004
:102CD00010BD521CD2B2052AF2D3092010BD00004B
:102CE0004801002010B50C4B002200BF02EB02147B
:102CF0001C4494F80C42844207D102EB02101844A1
:102D000000F503700860002010BD521CD2B2182AD2
:102D1000ECD3032010BD000050CB00200C4908B5B7
:102D2000D1F8881491F82C218DF802208DF801003B
:102D30000D208DF8000091F83F01012802D10E20EE
:102D40008DF800000878694607F0D1FBC0B208BDD5
:102D5000ACE90020F0B5056846688368C46801697D
:102D600042698769C069FF4377EA000701D0042000
:102D7000F0BDC84370EA020001D00320F0BDD84383
:102D800070EA040001D00220F0BDE84370EA0600BA
:102D900001D00120F0BD0020F0BD7CB5DDE9064585
:102DA000CDE9004500F002F87CBD0000F0B587B029
:102DB0000546DDE90C7670296FDA2970481C6CD065
:102DC00001F00F04012000FA04F46C80344C11F07F
:102DD000F00F1FD0C1F30311012926D002292ED0F4
:102DE000032936D02F496960E16C41F08001E1642C
:102DF000E16C01F08001059169880091AF720221B8
:102E0000CDE902717AB3032A30D0022A31D0012BE6
:102E100037D037E04FF090416960E16C41F001013B
:102E2000E164E16C01F00101E5E71F496960E16CD3
:102E300041F00201E164E16C01F00201DBE71B49B2
:102E40006960E16C41F00401E164E16C01F00401AE
:102E5000D1E717496960E16C41F00801E164E16C78
:102E600001F00801C7E7FFE7002000E00320019020
:102E70000FE0012B02D0019104960AE0122001908C
:102E8000FAE711200190012A03D13146284600F0CB
:102E900093F86946686800F07FFB07B0F0BD00005A
:102EA00000100240001C00480004004800080048D0
:102EB000000C0048F0B5044690F9000085B01746B4
:102EC00070286EDA00260625002B6AD02361608800
:102ED0000090012913D0022913D033480190A07A21
:102EE0000290022003906946606800F055FB57B1DC
:102EF000012F08D0022F08D0032F09D107E02B485B
:102F0000ECE72B48EAE7032602E0022600E0012670
:102F10006088B0F5807F33D012DC10282ED008DC1A
:102F2000012830D0022823D0042823D008282AD111
:102F300022E0202824D0402822D0802823D11FE05E
:102F4000B0F5805F1ED009DCB0F5007F18D0B0F579
:102F5000806F17D0B0F5006F15D113E0B0F5005FAA
:102F600010D0B0F5804F0DD0B0F5004F0BD109E077
:102F7000072508E0082506E0092504E00A2502E007
:102F8000172500E0282520780A4900F00F000022CC
:102F900041F820403146284600F0FCFC284600F06D
:102FA000DEFC05B0F0BD0000000031100000111083
:102FB0000000211060E5002090F90020702A06DA58
:102FC000521C04D0CAB24188406800F0CABB7047A6
:102FD000FFF770BFFFF7F0BF0FB40E48BDF8081041
:102FE000018100990160019941609DF80D104173C4
:102FF0009DF80E108173BDF80F10A0F80F109DF80A
:103000000A1081729DF80B10C1729DF80C100173AB
:1030100004B0704726CB00200248416841F001010E
:1030200041607047002004E00248416841F004011B
:1030300041607047002004E00248416841F002010D
:1030400041607047002004E010B590F8251000247E
:10305000022903D00421C16301241AE001680A682F
:1030600022F00E020A6001680A6822F001020A607A
:1030700090F84410036C01F01C02012101FA02F2E5
:103080005A6080F82510002180F82410816B01B16E
:103090008847204610BDF0B4016C0C6801680D68CB
:1030A00090F8442002F01C06042202FA06F32342A0
:1030B00011D06B070FD50B689B0603D40B6823F068
:1030C00004030B6090F8441001F01C018A40016C6D
:1030D0004A60016B1DE0022303FA06F727424FF016
:1030E000000C4FF0010218D0AF0716D50C68A406EB
:1030F00005D40C6824F00A040C6080F8252090F8B0
:10310000441001F01C018B40016C4B6080F824C01E
:10311000C16A00291AD0F0BC08470823B3402342F3
:1031200014D02B0712D50B6823F00E030B6090F818
:103130004410036C01F01C0102FA01F15960C263F2
:1031400080F8252080F824C0416BE2E7F0BC70478E
:1031500070B568B12B4C036814212B4AA34209D2E5
:103160002A4C1C44B4FBF1F18900C0E910210BE0AA
:10317000012070BD234C64421C44B4FBF1F1890072
:103180004164204908390164022180F825101C6837
:1031900047F6F0718C43D0E902152943D0E9045673
:1031A0003543294385692943C5692943056A29436C
:1031B000214319608168B1F5804F19D0036C0F214C
:1031C000934202D152F8A83F02E00E4AA03213689F
:1031D00090F8444004F01C04A1408B43136090F825
:1031E0004430416803F01C0399401368194311608F
:1031F0000021C163012280F8252080F824100846B0
:1032000070BD00000804024000000240F8FFFDBF4E
:1032100070B5044600F0AAFA0546601C00D0641C94
:1032200000F0A4FA401BA042FAD370BD2DE9F05F74
:10323000054635488946017801290CD0012780468A
:1032400007704CF2503B5846FFF74CFB06004FF01E
:10325000000A03D053E0022000F05AB8514640461D
:10326000C8F804A0294C226892050ED5216821F4E3
:10327000007121602168490505D5216821F480612C
:103280002160032109E0077708E02268520504D590
:10329000216821F4806121600221017728680128DA
:1032A00007D04FF0FF31C9F8001040F2FA7BAF6849
:1032B0001EE06868FFF7CAFA5846FFF713FB064698
:1032C000606948F204018843606116E03846696825
:1032D000FFF7D0FA4CF25030FFF704FB06006069AC
:1032E00020EA0B00606102D0C9F8007005E07F1C85
:1032F000D5E902010844B842E8D8FFF77DFA88F81A
:1033000000A03046A8E70000040000200020024092
:1033100030BCBDE8C09F00000348416941F0004156
:103320004161002070470000002002402DE9FF5F4E
:10333000254C0646904620789A4601280BD001205D
:1033400020704CF2503B5846FFF7CCFA07004FF084
:10335000000904D02AE0022004B000F039B8484641
:10336000C4F80490194D2968490504D5286820F44B
:10337000806028600220207726B1012E09D0022E1D
:1033800007D00CE0424653460198FFF78DFA01261C
:1033900012E041460198FFF793FA022E0AD05846F0
:1033A000FFF7A0FA4FEA0007FFF726FA84F800902B
:1033B0003846D1E74FF480265846FFF793FA074680
:1033C0006869B0436861EFE7040000200020024014
:1033D00030BCBDE8C09F0000064900204A69002AB1
:1033E00007DA054A8A60054A8A604969002900DAD5
:1033F000012070470020024023016745AB89EFCDD3
:103400002DE9F04F002301270F24DFF820A186E0EB
:1034100007FA03F616EA01027ED005684FEA430870
:103420004FF0030C0CFA08FC45EA0C050560DD08BA
:1034300000EB8508C346D8F820905D074FEAD568B1
:1034400004FA08F529EA0509CBF82090856825EAF1
:103450000C0585604568B5434560C56825EA0C05DF
:10346000C560C56AB543C56223F0030606EB0A05CD
:10347000D5F808C09E07360F04FA06F909EA0C08C9
:10348000B0F1904F06D0DFF8A8C0604505D14FF0ED
:10349000010C27E04FF0000C24E0DFF898C06045F5
:1034A00002D14FF0020C1DE0DFF88CC0604502D164
:1034B0004FF0030C16E0DFF884C0604502D14FF0F6
:1034C000040C0FE0DFF878C0604502D14FF0050C26
:1034D00008E0DFF870C0604502D14FF0060C01E053
:1034E0004FF0070C0CFA06FCC44517D1D5F808C0FC
:1034F0002CEA090CC5F808C0134D2E6896432E60BF
:103500002D1D2E6896432E602D1D2E6896432E602D
:103510002D1D2E68964300E000E02E605B1C31FA02
:1035200003F27FF475AF00F011B800000000014015
:103530000004004800080048000C00480010004843
:1035400000140048001800480004014030BCBDE8E9
:10355000C08F0000002118B904E04008491CC9B21E
:103560000128FAD1054850F82100002804D001694B
:10357000002901D0C06808477047000060E50020BE
:10358000044910B50A68024202D00860FFF7E2FF62
:1035900010BD0000140401402DE9F84FDFF898B188
:1035A00000234FF0010C4FF0030A4FF00F090BF10D
:1035B000040EB9E00CFA03F4224070D04D68022DDD
:1035C00001D0122D0ED1DD0800EB8508D8F820506F
:1035D0005E07F70E09FA07F6B5430E69BE402E43A3
:1035E000C8F8206007685E0091F804800AFA06F5C2
:1035F00008F00308AF4308FA06F848EA0708C0F8DD
:1036000000804F68012F05D0022F03D0112F01D069
:10361000122F13D1D0F80880CF6828EA0508B740E8
:1036200047EA08078760D0F804800F7928EA040881
:10363000C7F300179F4047EA08074760D1F80480A6
:103640006FEA0807BF0706D1C76AA743C8F3C004DB
:103650009C403C43C462C468AC438D68B54025437C
:10366000C5604C68E4005ED5344C256E45F001051C
:103670002566246E23F0030504F001040094304C09
:103680002E19B4689D072F0F09FA07F5AC43B0F166
:10369000904F05D02B4DA84204D101251CE042E0FB
:1036A000002519E0284DA84201D1022514E0274D3C
:1036B000A84201D103250FE0254DA84201D10425E0
:1036C0000AE0244DA84201D1052505E0224DA8427B
:1036D00001D1062500E00725BD402543B560DBF894
:1036E00000405D464E689443F60300D514432C60B9
:1036F000DEF8004075464E689443B60300D5144387
:103700002C600D4D08352C684E689443F60200D5A8
:1037100014432C60084D0C352C684E689443B60257
:1037200000D514432C605B1C0A6832FA03F57FF461
:1037300041AF00F013B80000000401400010024047
:10374000000001400004004800080048000C004848
:1037500000100048001400480018004818BCBDE8DC
:10376000E08F0AB18161704781627047014800684B
:10377000704700000000002070B5040011D02168DF
:103780004CF6CC400860216845F255500860D4E9F9
:10379000000141602168A0688860FFF7E7FF0546E7
:1037A00009E0012070BD00BFFFF7E0FF401B30289B
:1037B00001D9032070BD2068C0680028F4D12068BA
:1037C0000269E1688A4201D0016102E04AF6AA2159
:1037D0000160002070BD00684AF6AA210160002047
:1037E0007047000002480168491C016070470000F2
:1037F0000000002010B50024032000F0EBF80F209B
:1038000000F008F808B1012401E000F079F8204642
:1038100010BD000070B5054609484FF47A710024C8
:103820000068B0FBF1F001F048FD08B1012404E0AC
:1038300000222946501E00F0ADF8204670BD000061
:1038400024000020F0B52A4885B000240480801DA3
:103850000126048044808480001F05250480448064
:103860008DF80D60ADF808408DF80E5040F2E3770A
:10387000ADF80F708DF80A409DF810208DF80B40C0
:103880008DF80C408DF80020DDE9022319481A4913
:10389000FFF7A2FB19480A214460046014480C3069
:1038A000C6700571A0F805700570417084701348EA
:1038B00037383021446020F8024B04808471C47191
:1038C0008460C4600462017441748174C1740175C0
:1038D00041758175C175017641768176C176017732
:1038E00041778177C47705B0BDE8F04009F080BB2F
:1038F000AC0000202974350185EF530637CB00203A
:10390000104808B5016E41F001010166016E01F039
:1039100001010091816D41F080518165806D00222F
:1039200000F0805000900F21901E00F033F8052128
:103930000022084600F02EF8BDE80840052000F0FF
:103940000EB800000010024000F01F02012191405B
:103950004009800000F1E020C0F88011704700F0BD
:103960001F02012191404009800000F1E020C0F8D1
:10397000001170474109890001F1E021D1F80012DE
:1039800000F01F0201209040014201D00120704749
:1039900000207047F0B40E4B1B680C46C3F30223A3
:1039A000C3F10705042D00D90425191D072901D2EB
:1039B000002300E0DB1E012606FA05F1491E214026
:1039C00099409E40761E16403143F0BC04F0EFB89B
:1039D0000CED00E0064900F0070208684FF6FF030F
:1039E000184040EA0220034A104308607047000074
:1039F0000CED00E00000FA050D49086820F4804055
:103A000008600C483222006850430B4AB0FBF2F0C9
:103A1000401C00E0401E4A69920501D50028F9D1FA
:103A20004869800501D503207047002070470000D9
:103A3000007000402400002040420F00024801684E
:103A400041F4804101607047007000400A490A68F3
:103A500022F007020A6009490A6842F004020A607B
:103A6000012807D040BF20BF20BF086820F0040015
:103A70000860704730BFF8E70070004010ED00E0CC
:103A80000B490A6822F00702521C0A6009490A68B9
:103A900042F004020A60012807D040BF20BF20BFC7
:103AA000086820F004000860704730BFF8E70000A5
:103AB0000070004010ED00E00248006800F4C060B3
:103AC000704700000070004030B51D494A68036827
:103AD00022F00E021A434A601A490A6822F4803220
:103AE0000A600C1F226822F480322260154A0832D4
:103AF000136823F4803313600B1D1D6825F4803593
:103B00001D604568ED0303D5256845F480352560C3
:103B10004468A40303D50C6844F480340C60017934
:103B2000C90703D0196841F4803119600079800712
:103B300003D5106840F480301060002030BD0000D4
:103B400000700040040401400248416841F0010156
:103B5000416070470070004010B50C460E490028C7
:103B600048690FD0C043800501D5FFF767FF0B48B8
:103B7000016821F004010160012C0AD040BF20BF80
:103B800020BF10BD8005F2D5FFF736FF0028F8D121
:103B9000EDE730BF10BD00000070004010ED00E008
:103BA000B0F5804F084601D0FFF750BFFFF768BF60
:103BB0002DE9F84F044600270088E54D3E460105F3
:103BC00004F1200B1DD5606E78B1B0F5800F11D0D7
:103BD000B0F5000F04D0B0F5400F22D001270FE060
:103BE000E86840F48030E8601BE00021201D05F00B
:103BF0005FFA03E00021584605F0F0FA070010D004
:103C00003E462088C00426D5A06EC0B1B0F1807FAA
:103C10001AD0B0F1007F0DD0B0F1407F19D001274C
:103C200018E0D5F88800616E20F440000843C5F81C
:103C30008800E6E7E86840F48030E86009E00021A9
:103C4000201D05F035FA03E00021584605F0C6FABC
:103C50000746F7B13E46206880033AD5A86D4FF07D
:103C60000008C00009D4A86D40F08050A865A86D78
:103C70004FF0010800F080500090DFF8D8A2DAF889
:103C8000001041F48071CAF80010FFF76FFD814603
:103C900010E0D5F88800A16E20F040700843C5F808
:103CA0008800D8E7FFF762FDA0EB0900022801D9E0
:103CB000032705E0DAF80000C005F3D5002F7CD01B
:103CC0004FEA0706B8F1000F03D0A86D20F080502E
:103CD000A8652078C00707D0D5F88800A16B20F030
:103CE00003000843C5F888002078800707D5D5F879
:103CF0008800E16B20F00C000843C5F888002078AC
:103D0000400707D5D5F88800216C20F03000084323
:103D1000C5F888002078000707D5D5F88800616CC1
:103D200020F0C0000843C5F888002078C00607D5F9
:103D3000D5F88800A16C20F440700843C5F88800CD
:103D40002078800607D5D5F88800E16C20F4406023
:103D50000843C5F888002088800507D5D5F8880075
:103D6000E16D20F440200843C5F888002088400514
:103D700007D5D5F88800216E20F440100843C5F817
:103D800088002078400607D5D5F88800216D20F4FA
:103D900040500843C5F888002078000607D5D5F8BC
:103DA0008800616D20F440400843C5F888002088F1
:103DB000C00509D5D5F8880000E01CE0A16D20F40D
:103DC00040300843C5F8880020884FF00067800421
:103DD0004FF080684FD5D5F88800E16E20F0406044
:103DE0000843C5F88800E06EB8423CD1E86840F46A
:103DF0008010E8603FE0D5F8900010F4407015D0D6
:103E0000D4F88410814211D0D5F89000D5F89010E4
:103E100020F4407041F48031C5F89010D5F890102E
:103E200021F48031C5F89010C5F89000C00710D07B
:103E3000FFF79CFC074641F2883906E0FFF796FC45
:103E4000C11B494501D903263CE7D5F890008007FE
:103E5000F4D5D5F89000D4F8841020F440700843CD
:103E6000C5F890002EE7404505D10121201D05F041
:103E70001FF900B106462068000317D5D5F8880061
:103E8000216F20F040600843C5F88800206FB842D9
:103E900004D1E86840F48010E86007E0404505D1AF
:103EA0000121201D05F004F900B1064620684003F9
:103EB00017D5D5F88800616F20F040600843C5F839
:103EC0008800606FB84204D1E86840F48010E86070
:103ED00007E0404505D10121201D05F0E9F800B1BA
:103EE0000646208840041AD5D5F88800A16F20F036
:103EF00040500843C5F88800A06FB0F1805F03D040
:103F0000B0F1005F05D00AE00221201D05F0D0F8D5
:103F100003E00221584605F061F900B10646208809
:103F2000000407D5D5F88800E16F20F080400843F1
:103F3000C5F888002068C00307D555F8880FD4F865
:103F4000801020F0004008432860304600F004B89C
:103F5000001002400070004018BCBDE8E08F000077
:103F60002DE9F0470F46050058D03F4E306800F06D
:103F70000700B84209D2306820F0070038433060AB
:103F8000306800F00700B84248D12878374CC007A5
:103F90002CD06868032811D0022812D0216898B16B
:103FA000490500293ADAA16821F003010143A16023
:103FB000FFF7DCFB804641F2883910E02168890177
:103FC000EFE721688903ECE78907EAE7FFF7CEFB13
:103FD000A0EB0801494502D90320BDE8F087A0689D
:103FE000696800F00C00B0EB810FEFD128788007F2
:103FF00005D5A068A96820F0F0000843A0603068EB
:1040000000F00700B8420BD9306820F007003843B1
:104010003060306800F00700B84201D00120DCE7D2
:104020002878400705D5A068E96820F4E0600843D7
:10403000A0602878000706D5A068296920F46050A0
:1040400040EAC100A06000F0D1F8A168084AC1F3BD
:104050000311515C01F01F01C84006490860BDE82A
:10406000F0470F20FFF7D6BB0020024000100240AF
:10407000CC2C0108240000200F2202600C4A936817
:1040800003F003034360936803F0F00383609368D5
:1040900003F4E063C36092684FF4E06303EAD20282
:1040A00002610448006800F00700086070470000E3
:1040B00000100240002002400148006870470000E4
:1040C0002400002010B51F21016035490A68530300
:1040D0004FF0000202D54FF4A02304E00B68DB038D
:1040E00003D54FF48033436000E042600B68DC0787
:1040F0004FF0010301D0836100E082614C68C4F39A
:104100000724C4610C6804F0F00404620C68E40540
:1041100003D54FF48074C46000E0C2604C68C4F3FF
:1041200004640461D1F89040640702D505248460DA
:1041300006E0D1F89040E40701D0836000E082609F
:10414000D1F89440E40701D0436100E0426142624B
:104150000A68D20102D50222826200E08362CA6844
:1041600002F00302C262CA68C2F30212521C026366
:10417000CA68C2F306224263CA68C2F34152521CA3
:104180005200C263CA68C2F34162521C5200026408
:10419000C968890301D5112100E00721816310BDA1
:1041A000001002400548064900688968054AC1F3C5
:1041B0000221515C01F01F01C8407047240000201B
:1041C000001002400C2D0108054806490068896866
:1041D000054AC1F3C221515C01F01F01C84070477C
:1041E00024000020001002400C2D010870B5254964
:1041F000002318468A68CC6812F00C0204F003060B
:10420000214C4FEA640509D00C2A05D0042A26D097
:10421000082A00D1284670BD012E10D10B681B075B
:1042200004D4D1F89430C3F3032302E00B68C3F342
:104230000313164E56F823307AB10C2AEBD1C86816
:1042400000F00302C868C0F30210401C022A08D024
:10425000032A09D0B3FBF0F008E0184670BD2046F1
:1042600070BDB4FBF0F001E0B5FBF0F0CA68C968BE
:10427000C2F306225043C1F34161491C4900B0FB1F
:10428000F1F070BD001002400024F400DC2C0108A5
:104290002DE9F84305007CD0FD4CA06800F00C0629
:1042A000E06800F003072878C00661D576B10C2ECF
:1042B00001D1012F0AD0A8690028206878D040F0E9
:1042C00001002060FFF752FA804659E0206880071D
:1042D00002D5A8690028DED0286A2168090703D51D
:1042E000216801F0F00104E0D4F89410F02202EA11
:1042F0001111884215D904F0F7FF002849D1206830
:1043000040F0080020602068296A20F0F00008438F
:1043100020606068E96920F47F4040EA0120606025
:1043200015E0206840F0080020602068296A20F02D
:10433000F000084320606068E96920F47F4040EAAB
:1043400001206060286A04F0CFFF0028D6D1FFF773
:104350004DFFA168CF4AC1F30311515C01F01F0169
:10436000C840CD4908600F20FFF754FA00287DD1DE
:104370002FE000BFFFF7FAF9A0EB0800022876D87B
:1043800020688007F6D5206840F00800206020688B
:1043900001E0BBE00CE0296A20F0F0000843206057
:1043A0006068E96920F47F4040EA0120606010E025
:1043B00020F001002060FFF7D9F9804606E000BF39
:1043C000FFF7D4F9A0EB08000228D8D820688007AE
:1043D000F6D42878C00740D0082E18D00C2E01D172
:1043E000032F14D06868B0F5803F17D0B0F5A02F28
:1043F000206817D020F480302060206820F48020CE
:1044000020606868E0B1FFF7B1F9804614E02068E9
:10441000800322D56868002878D01EE0206840F428
:104420008030EDE740F480202060F7E7FFF79EF949
:10443000A0EB08006428A2D820688003F6D50CE021
:10444000FFF794F9804605E0FFF790F9A0EB08002C
:10445000642894D820688003F6D4287880073BD558
:10446000042E11D00C2E04D1022F01E036E1A1E080
:104470000AD0E868002820681ED040F480702060D0
:10448000FFF774F907460CE0206840050CD5E86892
:104490000028C1D008E000BFFFF768F9C01B022860
:1044A00093D820684005F7D56068297C20F0F85043
:1044B00040EA016060600FE020F480702060FFF748
:1044C00055F9074605E000BFFFF750F9C01B022869
:1044D00070D820684005F7D42878000729D5686986
:1044E0000028D4F8940012D040F00100C4F89400E1
:1044F000FFF73CF9074604E0FFF738F9C01B022834
:1045000058D8D4F894008007F6D512E0EDE020F0FA
:104510000100C4F89400FFF729F9074605E000BF41
:10452000FFF724F9C01B022844D8D4F89400800770
:10453000F6D42878400768D5A06D0027C00008D4BD
:10454000A06D40F08050A065A06D012700F0805064
:10455000009052480168C90512D40168814641F4AF
:1045600080710160FFF702F9804605E0FFF7FEF871
:10457000A0EB080002281DD8D9F80000C005F5D529
:10458000A868012817D00528D4F8900018D020F08A
:104590000100C4F89000D4F8900020F0040000BF9F
:1045A000C4F89000A86841F28839D0B1FFF7DEF86E
:1045B000804611E06BE0D4F8900040F00100EFE796
:1045C00040F00400C4F89000F5E700BFFFF7CEF814
:1045D000A0EB080149455AD8D4F890008007F5D5DA
:1045E0000EE0FFF7C3F8804606E000BFFFF7BEF815
:1045F000A0EB0801494570D8D4F890008007F5D4A5
:104600001FB1A06D20F08050A065A86AF0B30C2EF9
:104610006BD00228206820F08070206004D02068D1
:1046200010F0205F47D04AE0FFF7A0F8064604E00C
:10463000FFF79CF8801B02284FD820688001F7D430
:10464000286BE96A000110380843696BAA6B0902FC
:10465000120941EA42410843A98F114A490802EB75
:104660004151084395F840104908120102EB41619D
:104670000843E060206840F080702060E06840F00F
:104680008070E060FFF772F8054610E02BE024E050
:1046900000100240CC2C01082400002000700040D3
:1046A0000000E0FFFFF762F8401B022815D82068E1
:1046B0008001F7D517E0E06820F00300E060E068D3
:1046C0000B490840E060FFF751F8054608E000BFDD
:1046D000FFF74CF8401B022802D90320BDE8F883FD
:1046E00020688001F4D40020F8E70120F6E70000FC
:1046F000FFFFEEFE0068503050F82100704708B50B
:104700000068503000EB81000090026008BD90F816
:10471000201001291AD0012180F82010022280F8EF
:1047200021200368CA225A62036853225A6202682F
:10473000936843F0200393600368FF225A6280F875
:104740002110002180F82010084670470220704791
:104750002DE9F047044690F82000012823D04FF0BF
:10476000010884F82080022084F821002268CA20F1
:10477000506222685320506220680025FF26B1F560
:10478000807F81684FF0030A4FF47A790ED021F4CC
:10479000007181602068816821F400518160FEF71A
:1047A000E5FF074625E00220BDE8F08721F480718F
:1047B00081602068816821F480518160FEF7D6FF16
:1047C000074604E0FEF7D2FFC01B484509D8206821
:1047D000C068C007F6D010E0FEF7C8FFC01B484510
:1047E00007D92068466284F821A084F8205003206D
:1047F000DAE72068C0688007EED52068466284F852
:10480000218084F820500020CEE710B50C464FF4EC
:1048100080718A4204D161620168C869496C05E00F
:104820004FF4007161620168086A896CC0F3054247
:104830002270C0F30622627000F07F02A270C0F303
:104840008052C1F30E01E2706160C0F3056184F82B
:10485000201000F0804100F08030E16160618BB990
:10486000207804F09FFD2070607804F09BFD60705C
:10487000A07804F097FDA07094F8200004F092FD59
:1048800084F82000002010BD10B500680B46416878
:104890000D480140080CD870C1F304245C7001F08D
:1048A0003F049C70C1F34231197052B904F07AFD93
:1048B000D870587804F076FD5870987804F072FD3E
:1048C0009870002010BD00003FFFFF0010B50B46A0
:1048D0000168896A596001680969C1F30E0199602C
:1048E000006801680D480140C1F305401870C1F32C
:1048F00006245C7001F07F049C70890DD97052B958
:1049000004F050FD1870587804F04CFD58709878F9
:1049100004F048FD9870002010BD00007F7F7F00EC
:104920002DE9F04104004FF0010553D094F8210027
:10493000002528B9002084F82000204600F050F817
:10494000022084F821002168CA204862216853208F
:104950004862204604F03CFDFF26042718BB20686F
:1049600081681E4A11408160216888686268A36975
:10497000104322691A43104388602168E068086187
:1049800020680169228941EA024101612068C16809
:1049900021F08001C16020688068800609D420462B
:1049A00000F0ECF928B12068466284F821700125F6
:1049B00010E02068C16C21F00301C1646169E06905
:1049C00008432168CA6C1043C8642068466201200D
:1049D00084F821002846BDE8F0810000BFFF8FFF6A
:1049E00000680549884205D1044850F8901F41F4F9
:1049F00000410160704700000028004000100240A4
:104A00002DE9F05F044690F820000B4601284CD0B9
:104A1000012084F82000022084F82100206800266C
:104A200080684FEA4060EAB300285BDA187804F047
:104A3000B9FC00BF93F8200004F0B4FC9878197812
:104A4000DA7840EA01405978090241EA8251084384
:104A500093F8201040EA0165D8695F6805435869FA
:104A60002168054398690743CA204862216853209A
:104A70004862586A4FF0FF08B0F5807F20684FF019
:104A8000030B4FF47A7A81682ED021F40071816093
:104A90002068C16801F0800161F42071C160FEF7F7
:104AA00065FE00E004E0814653E0022000F07AB8A1
:104AB000002800DBDE70187804F07DFC05045878CF
:104AC00004F079FC45EA0025987804F074FC05436D
:104AD000D87845EA805593F8200004F06CFC45EA4C
:104AE0000065B9E7DE70A5E721F480718160206878
:104AF000C16801F0800161F4C071C160FEF736FE4B
:104B0000814605E0FEF732FEA0EB0900504517D8BC
:104B10002068C068C007F5D02068C5612068476478
:104B20002068816841F4807181602068816841F467
:104B300080511FE0FEF71AFEA0EB0900504508D98E
:104B40002168C1F8248084F821B084F82060032013
:104B5000ACE72068C0688007ECD520680562206853
:104B600087642068816841F40071816020688168F1
:104B700041F4005181600A48016841F480210160DC
:104B800007480830016841F4802101602168C1F8BC
:104B90002480012084F8210084F82060002085E72B
:104BA0000004014030BCBDE8C09F00002DE9F04783
:104BB000044690F820000B46012820D04FF0010950
:104BC00084F82090022084F82100DAB19878D9780E
:104BD00040EA014558781978000240EA413005431F
:104BE0002168CA204862216853204862204604F0A8
:104BF000EFFB0026FF274FF0040860BB1AE00220FD
:104C0000BDE8F0875878C10603D500F0EF000A3000
:104C10005870D87804F0CFFB0504587804F0CBFB2B
:104C200045EA0025987804F0C6FB0543187845EA64
:104C30004035D5E710480540206845602068C168C8
:104C400021F08001C1602068806880060BD4204676
:104C500000F094F838B12068476284F8218084F825
:104C600020600120CCE72068476284F8219084F816
:104C700020600020C4E700003FFFFF002DE9F0475F
:104C8000044690F8200092460D46012815D04FF0BA
:104C9000010884F82080022084F821002168CA20BD
:104CA0004862216853204862204604F091FBFF27A8
:104CB0004FF004090026E8BB02E00220BDE8F087BF
:104CC0002068BAF1000F80684FEA406005D00028E4
:104CD00017DA287804F066FB14E0002800DBEE7099
:104CE000287804F068FB0304687804F064FB43EA66
:104CF0000023A87804F05FFB0343E87843EA805080
:104D00000AE0EE70A8782978EA7840EA01406978EC
:104D1000090241EA825108431749084021680860A6
:104D20002068816821F480218160D5E9030108436E
:104D3000216800E00FE08A68104388602068C1683D
:104D400021F08001C1602068806880060BD4204675
:104D500000F014F838B12068476284F8219084F894
:104D600020600120AAE72068476284F8218084F847
:104D700020600020A2E700007F7F7F0070B504461E
:104D80000068C16821F0A001C160FEF7EFFC054694
:104D90004FF47A7607E000BFFEF7E8FC401BB04214
:104DA00001D9032070BD2068C0688006F4D50020BA
:104DB00070BD10B5040011D0022084F85D00206899
:104DC000016821F040010160204600F0E1F8002078
:104DD000206684F85D0084F85C0010BD012010BDE1
:104DE000704790F85D00704738B5016804464A681E
:104DF0008868C043430606D5C30704D1D3435B0686
:104E000001D4E16C05E0830708D4D3431B0605D425
:104E1000216D01B02046BDE830400847830603D528
:104E2000430601D5C30551D4D3439B064ED4430654
:104E30000AD494F85D30032B49D0236E43F0040369
:104E40002366CB688B680093830609D4236E43F0F6
:104E5000010323668B6800930B6823F040030B600B
:104E6000C00506D4206E40F00800206620688068E7
:104E70000090206E002829D02068416821F0E001D0
:104E80004160012084F85D00900701D4D00722D052
:104E90002068416821F003014160114DA06D40B1CF
:104EA0008563A06DFEF7D0F818B1206E40F0400089
:104EB0002066606D002809D08563606DFEF7C4F838
:104EC000002803D0206E40F04000206638BDC8683E
:104ED0008868009038BD2046FFF782FF38BD00008B
:104EE00051AD00082DE9F041040005D00025A56270
:104EF00094F85D0018B107E00120BDE8F08184F866
:104F00005C50204600F05EF8022384F85D30206893
:104F1000016821F040010160E0684FF4E066B042B2
:104F200001D9002101E04FF48051B0F5706F02D03B
:104F3000B04200D0A562276B012227B9B04201D947
:104F4000236300E02263D4E901031843D4E9043663
:104F500033431843238B03F400731843E369184366
:104F6000236A1843A36A184323681860636B606A56
:104F7000A66918430427E36807EA16463343184333
:104F8000084321684860256684F85D200020B4E766
:104F900010B50068094988420ED10948016E21F414
:104FA00080510166E0214FF09040FEF729FABDE8FC
:104FB00010402320FEF7C8BC10BD000000300140A7
:104FC0000010024010B586B0044614216846FBF775
:104FD000B4F917492068884227D11648016E41F478
:104FE00080510166016E01F480510591C16C41F060
:104FF0000101C164C06C694600F001000590E02029
:1050000000900220019000200290032003900520D0
:1050100004904FF09040FEF7BFFA002205212320B4
:10502000FEF7B8FC2320FEF79AFC06B010BD000086
:1050300000300140001002402DE9F05F044690F876
:105040005C0000270A9E1D4692468B464FF00109E0
:1050500001280ED0012084F85C00FEF787FB804613
:1050600094F85D00616801280CD0B1F5827F07D10A
:1050700002E0022000F011B9A16809B9042801D0AA
:10508000022700E1BBF1000F24D0BAF1000F21D0BC
:1050900005B394F85D00042802D0052084F85D0073
:1050A00000202066C4F840A0A4F84650A4F844505C
:1050B000C4F838B0E587A587E0642065E0684FF460
:1050C000E061884201D8012D06D92068426822F4A7
:1050D000805205E00127D6E02068426842F4805201
:1050E000426020680268520603D4026842F040021F
:1050F0000260E0688842606845D908B1012D3AD164
:10510000A06B21680088C860A06B801CA063E08F42
:10511000401EE0872FE02068816889070FD5E18F66
:1051200069B1B9F1010F0AD1A16B0988C160A06B07
:10513000801CA063E08F401EE0874FF000092068CC
:105140008168C9070FD0B4F8461061B1C068216CFE
:105150000880206C801C2064B4F84600401EA4F82F
:1051600046004FF00109FEF701FBA0EB0800B0423A
:1051700001D3701C75D1E08F0028CCD1B4F8460063
:105180000028C8D176E008B1012D6CD1E08F01284C
:10519000A06B08D921680088C860A06B801CA06340
:1051A000E08F801E07E0216800780873A06B401C28
:1051B000A063E08F401EE08755E020688168890782
:1051C0001AD5E18FC1B1B9F1010F15D1E18F0129D4
:1051D000A16B07D90988C160A06B801CA063E08F18
:1051E000801E06E009780173A06B401CA063E08F6D
:1051F000401EE0874FF0000920688168C90728D069
:10520000B4F8461029B3B4F84610012914D9C0687F
:10521000216C0880206C801C2064B4F84600801E3D
:10522000A4F84600B4F84600012810D82068416868
:1052300041F4805141600AE0007B216C0870206CD1
:10524000401C2064B4F84600401EA4F846004FF00D
:105250000109FEF78BFAA0EB0800B04202D3701CE4
:1052600001D018E0BEB1E08F0028A6D1B4F8460006
:105270000028A2D142463146204605F072FD10B109
:10528000012720202066012084F85D00002084F89A
:105290005C003846EEE60327F5E730BCBDE8C09F6A
:1052A0004FF0E0210428086903D020F004000861D1
:1052B000704740F00400FAE7704710B5401EB0F1A7
:1052C000807F01D3012010BD4FF0E02460610F21E9
:1052D000601702F06CFC0020A06107202061002014
:1052E00010BD10B5FFF7E8FF10BD70477047000014
:1052F0002DE9F04102680446D0691168936810F006
:105300000F0F4FF000055BD003F0010601F490771A
:10531000374369D0C70707D0CF0505D501271762E6
:10532000626F42F001026267820708D5DA0706D091
:10533000276802223A62626F42F004026267420703
:1053400008D5DA0706D0236804221A62626F42F099
:105350000202626702070AD501F02002324306D03A
:10536000236808221A62626F42F008026267626F65
:10537000002A32D0800605D5880603D5216E09B1F2
:1053800020468847606F000703D420688068400685
:1053900025D5204608F094FB20688168490619D578
:1053A000816821F040018160E06E98B120498163FD
:1053B000E06EFDF749FE00280FD0E06E816B06E03D
:1053C000860611D58E060FD5216E1EE02046BDE85B
:1053D000F04108472046FFF789FFBDE8F0812046ED
:1053E000FFF784FF6567F8E7C60209D55B0207D5BA
:1053F0004FF4801010622046BDE8F041FFF775BF02
:10540000030605D50B0603D5616E0029DED1E4E75E
:105410004006E2D54806E0D51168204621F040015B
:105420001160202184F87110656600F089FAD4E7D4
:10543000ADDA000810B5040003D094F8710010B183
:1054400007E0012010BD002084F87000204600F025
:1054500027F8242084F871002068016821F00101F8
:105460000160204608F098FB0128EBD0606A10B17B
:10547000204608F089FA2068416821F49041416093
:105480002068816821F02A0181602068016841F06C
:10549000010101602046BDE8104008F0D9BA0000C3
:1054A0002DE9F04786B0054614216846FAF745FF16
:1054B0009A4AD5F800C00024994802230321802687
:1054C000571494454FD1826D42F480128265826DEB
:1054D00002F480120592C26C42F00402C264C26CF3
:1054E00002F004020592C26C42F00802C264C06C71
:1054F000894600F008000590D802CDE9000302AA11
:105500004FF0080A82E81006984669468548FEF77B
:1055100043F80420CDE9000802AA694682E8100693
:105520008148FEF739F8DFF8089280494846C9F803
:105530000010C0E90184C0E90346C9F81440C9F865
:105540001840C9E90747FDF703FE08B1FDF740F928
:10555000C5F86C90002205213520C9F82850FEF7C7
:1055600019FA352047E0DFF8CC8107224FF0904947
:10557000C44545D1D0F860C04CF4804CC0F860C040
:10558000D0F860C00CF4804CCDF814C0D0F84CC0FA
:105590004CF0010CC0F84CC0C06C029400F001004B
:1055A0000590CDE903124FF4C060CDE900039846A1
:1055B00069464846FDF7F0FFDFF880915E494846AE
:1055C000C9F80010C0E90184C0E90346C9F81440D5
:1055D000C9F81840C9E90747FDF7BAFD08B1FDF75A
:1055E000F7F8C5F86C90002205212520C9F828504D
:1055F000FEF7D0F92520FEF7B2F906B0BDE8F08736
:10560000DFF83C81C44541D1D0F858C04CF4003C8F
:10561000C0F858C0D0F858C00CF4003CCDF814C005
:10562000D0F84CC04CF0010CC0F84CC0C06C0294D7
:1056300000F001000590CDE903120C20CDE9000334
:10564000984669464846FDF7A7FF3B49DFF8F490C6
:1056500014314846C9F80010C0E90184C0E9034686
:10566000C9F81440C9F81840C9E90747FDF770FDAB
:1056700008B1FDF7ADF8C5F86C9000220521262091
:10568000C9F82850FEF786F92620B4E7DFF8B8807D
:10569000C445B2D1D0F858C04CF4802CC0F858C0E2
:1056A000D0F858C00CF4802CCDF814C0D0F84CC001
:1056B0004CF0020CC0F84CC0C06C029400F0020028
:1056C0000590CDE903124FF44060CDE90003984600
:1056D00069461E48FDF760FF1749DFF874902839C6
:1056E0004846C9F80010C0E90184C0E90346C9F87A
:1056F0001440C9F81840C9E90747FDF729FD08B16A
:10570000FDF766F8C5F86C90002205212720C9F83E
:105710002850FEF73FF927206DE7000000500040B9
:105720000010024000080048000C00481C04024021
:1057300020C90020003801405800024068C90020FC
:1057400000440040B0C90020004800400004004868
:10575000F8C9002030B590F87230202B4AD1B1B191
:10576000AAB190F87030012B44D0012380F870303A
:105770004165A0F85820A0F85A20002202661D03B7
:105780008168FF23A94207D1016911B10CE0012012
:1057900030BD40F2FF110DE07F2419B1B1F1805FFF
:1057A00005D009E0016901BBA0F85C3004E00169A3
:1057B000D9B13F21A0F85C104267222180F8721015
:1057C00001688B6843F001038B608168A94201D1B5
:1057D000016969B10849016680F8702000680168B4
:1057E00041F490710160002030BDA0F85C40E3E717
:1057F0000249F0E7022030BD3DDB0008E1DA000895
:1058000070B504460068018B41F0080101832068EF
:10581000018B41F0100101831549206888420BD1AA
:10582000144800F023FA20B9134801781148FDF715
:10583000AFF80122104914E01049884216D01049EF
:10584000884213D10F4D10A02978FCF7A7F80F4814
:1058500000F00CFA18B929780C48FDF799F80949B5
:1058600001222046BDE87040FFF774BF70BD000004
:105870000050004048D500209C000020004400401B
:10588000004800409F0000202563000054D5002000
:105890002DE9F843044690F871001F4616460D4660
:1058A00020284BD1C5B1BEB194F87000012845D075
:1058B000012084F870004FF00008C4F874802120A3
:1058C00084F87100FDF752FFA4F850608146A4F8F7
:1058D00052604FF4805615E00120BDE8F883802126
:1058E000204608F0A9FAD8B9A068B04201D12069D1
:1058F000C0B115F8010B21680885B4F85200401EAC
:10590000A4F85200B4F852004B464FF00002009742
:105910000028E4D14FF04001204608F08DFA30B164
:105920000320DAE735F8020BC0F30800E3E7202094
:1059300084F8710084F870800020CEE70220CCE764
:105940007047FEE7704700004FF00062314C324D67
:10595000324B00261068012708B9506800B1FEE7F5
:1059600030492F4888603048886002204FF4006E2C
:1059700052F820C043F820C0401C7045F8D31C608A
:105980005D60886940F0004088614CF2FA3008613F
:10599000F807486902D020F4006001E040F400609C
:1059A000486148694FF4FF6494FAA4F4B4FA84F4AB
:1059B00020F4FF60A64030434861486940F002008F
:1059C0004861486940F4803048610869C003FCD4EC
:1059D000486940F2FA74A043486100200C69E4036E
:1059E000FCD44C6944F001044C6153F8204042F867
:1059F0002040401C7045F1D3BFF34F8F0B48016826
:105A00000B4A01F4E06111430160BFF34F8F00BF07
:105A1000FDE70000C01B0020F12D0008000003205E
:105A20002301674500200240AB89EFCD0CED00E07B
:105A30000400FA05FEE70000134910B58869002844
:105A40001CDA88698969C0F3120000F1006009035B
:105A50000AD50E490968A1F57F42FF3A0FD0090522
:105A60005FEA912100EB51000949884202D20949BD
:105A7000884203D8FCF7EFF8002803D0FEE74FF484
:105A80008011EFE710BD000000200240E075FF1F0D
:105A900000000808FF9F080802F002B838B50C465D
:105AA00005460748FFF79DF90128FAD10520009027
:105AB0000123224629460248FFF7BEFA38BD0000FE
:105AC00040CA002010B5FDF78DFEBDE81040FFF77D
:105AD00008BC000010B502F029F8094801680A8BDB
